:020000040000FA
:02000000C22814
:040002000034003492
:080008005F288930D900D90BF3
:1000100007288930D900D90B0B28080005161010C5
:1000200006308E00C0308F0010145F08013EDE00E5
:1000300081010C106E288101DE0B6E2805120B1158
:100040006E288B130B131611051924280830DB00BA
:10005000DC0109200519242805200310DC0C0519F2
:10006000DC17DB0B2C2805205C084A205C088B2859
:10007000051938280830DB00DC010920051938286B
:1000800005200310DC0C0519DC17DB0B40280520CC
:100090005C0808008B130B13DC000830DB008510B4
:1000A0000520DC0C031C85100318851405080520A9
:1000B000DB0B5128851405208B170B170034D80053
:1000C000030E8312D7008B130B1316110C180E2876
:1000D0000B191B280B1821280C1B86288B170B17B4
:1000E0001615570E8300D80E580E09000130851DD5
:1000F00000304A206E283820DD0085165D1C8512F0
:100100006E283820DF006E289F146E2883169E000C
:100110004A200C136E28013C03197628013E023C4C
:1001200003197B28023E033C03198128033E113C3E
:06013000031984286E286B
:0A01360082074234693465346E34E8
:10014000763465346E34693464346F3473340D340A
:100150008207453473347034653472346F3420341C
:1001600049344E3453343A3420348207453473349E
:100170007034653472346F34203444344134543430
:100180004F343A3483128501870183168501870134
:100190009101960183129F1783161F171114F830CF
:1001A0008B000C14C5308100831200308E00C030EB
:1001B0008F000D30900083160D30850016158312C8
:1001C000FF30DF0085140C30D4000030D500D5009E
:1001D0009B204A205508013ED40BE7280B30D40061
:1001E0000030D500D500A8204A205508013ED40B88
:0401F000F228F928D0
:02400E00943FDD
:00000001FF
